:020000040000FA
:100000000010040000000000404E0000A24A000062
:10001000A84A0000BC4A0000C24A0000C84A0000CA
:10002000404E0000404E0000404E0000404E000098
:10003000404E00004C340000404E0000404E000096
:10004000404E00008E2700001A280000404E00009D
:10005000404E0000404E0000404E0000404E000068
:10006000404E0000404E0000404E0000404E000058
:10007000404E0000A6280000404E0000404E000008
:10008000404E0000404E0000404E0000404E000038
:10009000404E0000404E0000404E0000404E000028
:1000A000404E0000404E0000404E0000404E000018
:1000B000404E000032290000404E0000404E00003B
:1000C000404E0000404E0000404E0000404E0000F8
:1000D000404E0000404E0000404E0000404E0000E8
:1000E000404E0000404E0000404E0000404E0000D8
:1000F000404E0000404E0000404E0000404E0000C8
:10010000404E0000404E0000404E0000404E0000B7
:10011000404E0000404E0000404E0000404E0000A7
:10012000404E0000404E0000404E0000404E000097
:10013000404E0000404E0000404E0000404E000087
:10014000404E0000404E0000404E0000404E000077
:10015000404E0000404E0000404E0000404E000067
:10016000404E0000404E0000404E0000404E000057
:10017000404E0000404E0000404E0000404E000047
:10018000404E0000404E0000404E0000404E000037
:10019000404E0000404E0000404E0000404E000027
:1001A000404E0000404E0000404E0000404E000017
:1001B000404E0000404E0000404E0000404E000007
:1001C000404E0000404E0000404E0000404E0000F7
:1001D000404E0000404E0000404E0000404E0000E7
:1001E000404E0000404E0000404E0000404E0000D7
:1001F000404E0000404E0000404E0000404E0000C7
:10020000FFFFFF00FFFFFF00404E0000CE4A00004E
:10021000D44A0000DA4A0000E04A0000E64A000042
:10022000404E0000404E0000404E0000404E000096
:10023000404E00004C340000404E0000404E000094
:10024000404E00008E2700001A280000404E00009B
:10025000404E0000404E0000404E0000404E000066
:10026000404E0000404E0000404E0000404E000056
:10027000404E0000A6280000404E0000404E000006
:10028000404E0000404E0000404E0000404E000036
:10029000404E0000404E0000404E0000404E000026
:1002A000404E0000404E0000404E0000404E000016
:1002B000404E000032290000404E0000404E000039
:1002C000404E0000404E0000404E0000404E0000F6
:1002D000404E0000404E0000404E0000404E0000E6
:1002E000404E0000404E0000404E0000404E0000D6
:1002F000404E0000404E0000404E0000404E0000C6
:10200000EF9D2100006F2200000188000000000009
:102010000C00070040782300010020001100070099
:10202000000020000000E00002003200000002007A
:1020300000000000BE4B0200000000000040DA007B
:102040000000FE004440A900002020000000E00045
:102050000300320000002000A00188004440A800D6
:102060000000060091018800800078000000EB006D
:1020700015003700E280400032A0B4009101BA00A0
:10208000E280400032A0B4009102BA00E280400039
:1020900032A0B4000002EB00472BDE00F507B200CF
:1020A000602CE10004003A000059EB008301E900D4
:1020B000FDFF3E00040037006128E100010032000E
:1020C0000082EB00040007001101BA000200E000EA
:1020D000E8FF3A00000006003159BA008301E90028
:1020E0000C0032002159BA008301E90008003200D7
:1020F0000400E00003003A00E280400032A0B40097
:10210000F5FF370011D9BA008301E900FAFF3A0060
:102110008100E800E180400032A0B4000000060029
:1021200000000000000000000000000000000000AF
:10213000000000000000000000000000000000009F
:10214000000000000000000000000000000000008F
:10215000000000000000000000000000000000007F
:10216000000000000000000000000000000000006F
:10217000000000000000000000000000000000005F
:10218000000000000000000000000000000000004F
:10219000000000000000000000000000000000003F
:1021A000000000000000000000027800808F500056
:1021B0000A00310082814000808F51000700360004
:1021C000020240008000EB00436278008100E800DA
:1021D000828F500007003200FBFF37000200E00052
:1021E0000400320002814000315A7800828F500092
:1021F000FDFF3A0000000600000000002110000072
:10220000422000006330000084400000A550000020
:10221000C6600000E77000000881000029910000FE
:102220004AA100006BB100008CC10000ADD10000DC
:10223000CEE10000EFF100003112000010020000BA
:102240007332000052220000B55200009442000098
:10225000F7720000D6620000399300001883000076
:102260007BB300005AA30000BDD300009CC3000054
:10227000FFF30000DEE300006224000043340000AE
:102280002004000001140000E6640000C774000090
:10229000A4440000855400006AA500004BB500006E
:1022A0002885000009950000EEE50000CFF500004C
:1022B000ACC500008DD5000053360000722600002A
:1022C0001116000030060000D7760000F666000008
:1022D00095560000B44600005BB700007AA70000E6
:1022E0001997000038870000DFF70000FEE70000C4
:1022F0009DD70000BCC70000C4480000E55800009E
:1023000086680000A77800004008000061180000FF
:102310000228000023380000CCC90000EDD90000DD
:102320008EE90000AFF900004889000069990000BB
:102330000AA900002BB90000F55A0000D44A000099
:10234000B77A0000966A0000711A0000500A000077
:10235000333A0000122A0000FDDB0000DCCB000055
:10236000BFFB00009EEB0000799B0000588B000033
:102370003BBB00001AAB0000A66C0000877C00008D
:10238000E44C0000C55C0000222C0000033C00006F
:10239000600C0000411C0000AEED00008FFD00004D
:1023A000ECCD0000CDDD00002AAD00000BBD00002B
:1023B000688D0000499D0000977E0000B66E000009
:1023C000D55E0000F44E0000133E0000322E0000E7
:1023D000511E0000700E00009FFF0000BEEF0000C5
:1023E000DDDF0000FCCF00001BBF00003AAF0000A3
:1023F000599F0000788F000088910000A98100009B
:10240000CAB10000EBA100000CD100002DC10000FA
:102410004EF100006FE1000080100000A1000000FC
:10242000C2300000E32000000450000025400000FE
:102430004670000067600000B983000098930000B8
:10244000FBA30000DAB300003DC300001CD3000072
:102450007FE300005EF30000B10200009012000074
:10246000F3220000D2320000354200001452000076
:102470007762000056720000EAB50000CBA50000AC
:10248000A8950000898500006EF500004FE500006A
:102490002CD500000DC50000E2340000C32400006C
:1024A000A01400008104000066740000476400006E
:1024B0002454000005440000DBA70000FAB7000028
:1024C00099870000B89700005FE700007EF70000E2
:1024D0001DC700003CD70000D3260000F2360000E4
:1024E00091060000B01600005766000076760000E6
:1024F00015460000345600004CD900006DC900009C
:102500000EF900002FE90000C8990000E9890000D9
:102510008AB90000ABA900004458000065480000DB
:102520000678000027680000C0180000E1080000DD
:1025300082380000A32800007DCB00005CDB000097
:102540003FEB00001EFB0000F98B0000D89B000051
:10255000BBAB00009ABB0000754A0000545A000053
:10256000376A0000167A0000F10A0000D01A000055
:10257000B32A0000923A00002EFD00000FED00008B
:102580006CDD00004DCD0000AABD00008BAD000049
:10259000E89D0000C98D0000267C0000076C00004B
:1025A000645C0000454C0000A23C0000832C00004D
:1025B000E01C0000C10C00001FEF00003EFF000007
:1025C0005DCF00007CDF00009BAF0000BABF0000C1
:1025D000D98F0000F89F0000176E0000367E0000C3
:1025E000554E0000745E0000932E0000B23E0000C5
:1025F000D10E0000F01E00000000FA00416B200028
:102600009140780000CEB30000C060005040B3009D
:10261000B4E6B700616C20009140780000CEB300B2
:1026200000C060000044A000C6E6B70011402000D2
:102630009140780080CFB30000C060000024A0006B
:1026400001E4B700014020009140780000CEB300C3
:1026500080C0600000C8B30080CF5000F9FF3A008E
:1026600078000700614020009140780000CEB30060
:1026700000C060000024A00006E4B70007C4BF004B
:102680007F40600001C4B3000140700007E4B70060
:10269000207C2100100078000E000700114020006F
:1026A0009140780080CFB30000C0600001E4B70023
:1026B00000C4BF0001CEB300014060000004E00090
:1026C000FBFF3A001B000700410007000080FA00F2
:1026D000000006000200FA00000F78001E007800DB
:1026E0006101B8008002EB00F40020008000EB00E4
:1026F0000000EB001C0107008002EB00F40020004A
:102700008000EB00F27F200003002000100020007A
:10271000150107000002EB008000EB00F27F2000B3
:10272000030020000000EB00F10107000080FA0028
:10273000000006000000FA000000EB0050218800B5
:102740005021800040218800402180001021880015
:10275000102180000021880030E4A80031E4A800A6
:1027600032E4A80033E4A80034E4A90035E4A90069
:1027700036E4A90037E4A90030C4BF003040B300FC
:1027800030E4B70031C4BF003040B30031E4B700DB
:1027900032C4BF003040B30032E4B70033C4BF00DE
:1027A0003040B30033E4B7000080FA0000000600B8
:1027B0000000FA009860A8000A24A9000A04A900F1
:1027C0000C04A8000C24A8000080FA0000000600F9
:1027D0000000FA000000EB00001F88000002220049
:1027E000001C880060042000101C88002044200089
:1027F000401C880070002000501C880000702000E1
:10280000201C880081E3A8000000EB00001F880066
:1028100000022000601C880000442000A01C8800EA
:1028200070002000B01C880020022000701C88006E
:1028300000702000801C88008DE3A8000080FA0052
:10284000000006000000FA000164A8000141200019
:102850009140780000CCB30000C0700010E4B700D5
:10286000014120009140780000CCB30000C060001E
:102870000004A00010E4B70021412000914078003E
:1028800080C3B30000C0700012E4B70012E4A800D7
:10289000314120009140780080CFB30000C060003B
:1028A0005040B30013E4B70021412000914078006C
:1028B00080CFB30000C060000024A00012E4B70085
:1028C00012C4A8000080FA00000006001800FA00F8
:1028D000100F9800210F9800625798000000EB003D
:1028E000000F98000000EB007007980030C4BF0094
:1028F000684060000004E00003003A00007022001D
:10290000700798001400370031C4BF0068406000B1
:102910000004E00003003A000071220070079800F4
:102920000D00370032C4BF00684060000004E000C2
:1029300003003A000072220070079800060037007A
:1029400033C4BF00684060000004E00002003A00A9
:1029500000732200700798007E0090000000E000E5
:102960005C0032006000B8005007980061079800D2
:102970006000B80030079800410798006000B80078
:1029800010079800210798002E089000000F78008B
:102990009E089000F07F2000008060004200DD0073
:1029A0000100200050079800610798006E509000C9
:1029B0000080FB00010020006F0160006000B80093
:1029C0000300200002007000838070001E01900050
:1029D000AE0190000200400083804800100798007C
:1029E00021079800DE0090007E009000010878002A
:1029F0007E0090008080E8003E0090008008780013
:102A00007E009000E40040001E00900080087800E6
:102A10007E009000660140001E00E8001040780033
:102A20000080FB00C800DD001E0078001040780028
:102A30000080FB0000804000000978007E009000CC
:102A4000680140009E0078006380400010407800DC
:102A50000080FB00C800DD001E80E8001040780008
:102A60000080FB0000804000000978007E0090009C
:102A70006A0140009E0178006580410010407800A6
:102A80000080FB00C800DD009E01780064804100EA
:102A9000104078000080FB000080400000097800B2
:102AA0007E0090006C0140009E007800678040002E
:102AB000104078000080FB00C800DD009E01780017
:102AC00066804100104078000080FB0000804000DC
:102AD00000097800017022007E009000810F5000F4
:102AE00004003A003064A80010002000000F980095
:102AF0001A00370000712200800078007E009000EC
:102B0000810F500004003A003164A800100020003A
:102B1000000F98001100370000722200800078003A
:102B20007E009000810F500004003A003264A8003B
:102B300010002000000F98000800370000732200EA
:102B4000800078007E009000810F500003003A0062
:102B50003364A80010002000000F98000E089000B9
:102B60000080FA00000006002C00FA00200F9800F8
:102B7000320F9800430F9800510F9800640F98008F
:102B8000750F98006000B800000F9800110F9800B2
:102B90006000B80060079800710798006000B800F6
:102BA00040079800510798000004A8002E089000E4
:102BB0000000400000004000800078000044200039
:102BC00000804000300798002E0890004280DE0010
:102BD000000040008000780000422000008040009B
:102BE000200798002E0890004380DE00000040007F
:102BF000800078008041200000804000100798008D
:102C000040412000000F78005E089000E10F500066
:102C100055003A003E089000CE089000F2FF2F00C9
:102C20000300200000027800810278000200780092
:102C30008300780000016200018062006102B80038
:102C400004179800151798000E1090009E10900021
:102C5000C000DD0000002000001798001117980048
:102C60000E1090009E1090006112B800041798009A
:102C7000151798000E1190009E1190000200700030
:102C80008380700060079800710798003E089000EC
:102C9000CE0890004088DE00CF80DE006301600037
:102CA0006000B80003002000020070008380700004
:102CB00040079800510798003E089000CE08900009
:102CC0004288DE00CF80DE00F27F2000030020007B
:102CD000000278008102780002007800830078000A
:102CE00000016200018062006102B80024179800B0
:102CF000351798002E109000BE109000C000DD0027
:102D00000000200020179800311798002E10900026
:102D1000BE1090006112B800241798003517980073
:102D20002E119000BE119000020070008380700090
:102D3000000F9800110F98000E089000C500DD00EC
:102D40004E00900000804000E80040003E009000EF
:102D5000010878003E0090008080E8006E0090003E
:102D600080087800260037003E089000CE089000CA
:102D7000F27F20000300200000027800810278002A
:102D80000200780083007800000162000180620088
:102D90006102B80044179800551798004E10900033
:102DA000DE109000C000DD000000200040179800F9
:102DB000511798004E109000DE1090006112B8007C
:102DC00044179800551798004E119000DE1190009E
:102DD0000200700083807000000F9800110F9800AF
:102DE0000E089000C500DD003E009000010878004C
:102DF0003E0090008080E8000000EB008008780032
:102E00002E009000100178002E08900063006000F2
:102E1000C200DD00F00020000100DD00800078002D
:102E20000080EB0001005000800061002E00900047
:102E3000010878002E08900063006000C200DD00E9
:102E40006E0890008100DD002E00900010007800D8
:102E5000808070002E009000010878001E00900015
:102E6000100178002E08900067006000000040000C
:102E700080007800300020000100DD008000780034
:102E80000080EB0001005000800061001E009000F7
:102E9000010878002E0890006700600000004000E4
:102EA000800078007E0890008100DD001E00900008
:102EB00010007800808070001E00900001087800EB
:102EC000110020002E0890000008DD00800078002E
:102ED0001E00780010007800808070001E007800CE
:102EE000010878000004A9000080FA000000060034
:102EF0002400FA0070079800020F9800130F980042
:102F0000210F9800340F98006000B8005007980017
:102F1000610798006000B8003007980041079800EA
:102F20006000B80010079800210798000004A8006E
:102F30007E0090000000400000004000800078000B
:102F40000043200000804000000F78003E08900001
:102F5000E10F50005E003A000E0890009E089000BD
:102F6000F2FF2F00030020000002780081027800A9
:102F70000200780083007800000162000180620096
:102F80006102B800440F9800550F98004E08900059
:102F9000DE089000C000DD0000002000400F980017
:102FA000510F98004E089000DE0890006112B800A2
:102FB000440F9800550F98004E099000DE099000CC
:102FC000020070008380700030079800410798006D
:102FD0000E0890009E0890004088DE00CF80DE0042
:102FE000630160006000B800030020000200700070
:102FF0008380700010079800210798000E08900049
:103000009E0890004288DE00CF80DE00F27F200024
:10301000030020000002780081027800020078009E
:103020008300780000016200018062006102B80044
:10303000640F9800750F98006E089000FE089000CD
:10304000C000DD0000002000600F9800710F9800A4
:103050006E089000FE0890006112B800640F98009E
:10306000750F98006E099000FE0990000200700034
:103070008380700050079800610798002E08900028
:10308000E10F500008003A005E009000C500DD002E
:103090001E00900000804000E80040001E00780004
:1030A00001087800060037005E009000C500DD00D2
:1030B0001E009000808040001E007800010878000B
:1030C0009E80E8003E009000800878002E003700C7
:1030D0000E0890009E089000F27F20000300200060
:1030E00000027800810278000200780083007800F6
:1030F00000016200018062006102B80004179800BC
:10310000151798000E1090009E109000C000DD0072
:103110000000200000179800111798000E10900072
:103120009E1090006112B8000417980015179800BF
:103130000E1190009E1190000200700083807000BC
:1031400050079800610798002E089000E10F50008A
:1031500006003A005E0090004500DD00E8004000F7
:103160001E00780001087800040037005E0090001F
:10317000C500DD001E007800010878009E80E80090
:103180000000EB00800878000004A9000080FA002D
:10319000000006000000FA000AC4BF0062406000A0
:1031A0000004E0000400320011002000A02E2100E5
:1031B000A60E07000A24A9000AC4BF0061406000EF
:1031C0000004E000010032000A04A9008860A900A0
:1031D0000080FA00000006000800FA00300798009E
:1031E00010112100E0BE88003E0090000000E800C1
:1031F0000080E800104078008080FB003E009000D6
:103200000000E80063004000104078000080FB00F0
:103210004800DD0000804000200798003E0090003C
:103220000000E80064004000104078008080FB004F
:103230003E0090000000E80065004000104078006B
:103240000080FB004800DD0000804000100798006F
:103250009E009000F0DF2400808F500004003600B4
:103260009E00900000A02A00808F500002003600CF
:1032700000A02A00100798003E0090001040900027
:103280008080FB003E0090000000E8000000E800A5
:10329000104078000080FB004800DD000080400006
:1032A0000000E00006003A00AE009000400620005A
:1032B000808F500002003E000080EB00E0BE8800DE
:1032C00080E020008040EB00014878000000E8002A
:1032D0008040EB00014878000000E8008040EB00EF
:1032E000014878000000E8008040EB0001487800C9
:1032F0000000E8008040EB00014878000000E80092
:103300008040EB00014878000040EB00DAF7B7009E
:10331000E0BE8000E10F400017003200803621003F
:10332000030C0700207C21001000780082C0B3004D
:103330008136210065FD07002E00900060BE8800E8
:103340001E00900070BE8800E0BE800080BE880035
:103350004023210090BE88000000EB00A0BE880042
:10336000C07C2100000F78009E007800A2002000A1
:10337000000820007F0507000080FA00000006001A
:103380000600FA0010079800E0BE8000E10F400040
:10339000130132001E0090000000E8001040780089
:1033A00000E8B700E0BE800020079800202222003D
:1033B000AE009000808F500040003200202222009A
:1033C000AE009000808F500005003E0010112100DB
:1033D000AE009000808F50000A00320000013700DC
:1033E00030332300AE009000808F50009F003200E9
:1033F00050552500AE009000808F5000A200320092
:10340000F700370000C8BF000004E00028003A00C1
:1034100020222200E0BE88000040EB0001E8B70057
:1034200080E020008040EB00014878000000E800C8
:103430008040EB00014878000000E8008040EB008D
:10344000014878000000E8008040EB000148780067
:103450000000E8008040EB00014878000000E80030
:103460008040EB00014878000040EB00DAF7B7003D
:103470000040EB00DBF7B7001E0090000000E80002
:103480000001E80000C8BF000080FB006600B90032
:103490008000780080802000008040000500090046
:1034A000325878006000B1006200B100CC003700F3
:1034B00060662600E0BE8800C900370000C8BF0073
:1034C0008080FB0001C8BF000080FB00008050002E
:1034D000E10F50005500320001C8BF00E14F40002D
:1034E00052003200DAD7BF00E54F50001900360015
:1034F00030332300E0BE880080E020008040EB00F5
:10350000014878000000E8008040EB0001487800A6
:103510000000E8008040EB00014878000000E8006F
:103520008040EB00014878000000E8008040EB009C
:10353000014878000000E8008040EB000148780076
:103540000040EB00DAF7B7000040EB00DBF7B70014
:10355000A3003700018020009140780001C8BF001F
:1035600000CF50001E04E000300032009E80FB00BF
:10357000DAD7BF000080FB0000804000E60F50005B
:103580002700340030332300E0BE880080E02000B4
:103590008040EB00014878000000E8008040EB002C
:1035A000014878000000E8008040EB000148780006
:1035B0000000E8008040EB00014878000000E800CF
:1035C0008040EB00014878000000E8008040EB00FC
:1035D000014878000040EB00DAF7B7000040EB004C
:1035E000DBF7B7007E00370001C8BF000040E800ED
:1035F00001E8B700DAD7BF008080FB00128020000E
:103600001241780080E020000080400002487800ED
:10361000DAD7BF000040E800DAF7B7001E4FE90034
:1036200010C0B3009E4F1000EFFF3E001E00900040
:103630000000E8000001E80000C8BF000080FB00B7
:103640006600B90080007800808020000080400083
:1036500005000900325878006000B1006200B10036
:1036600000C8BF0001E8B7005D00370000C8BF0018
:1036700001E8B7000040EB00DAF7B7000040EB00CC
:10368000DBF7B70056003700DAD7BF00E64F50002F
:1036900053003E00B17D210091407800DAD7BF0091
:1036A00080CF50004E003E00DBD7BF008080FB0083
:1036B00080E02000008040009040780000C8BF00FB
:1036C00080CF50002E003A001E0090000000E8005D
:1036D0000001E80000C8BF000080FB006600B900E0
:1036E00080007800808020000080400005000900F4
:1036F000325878006000B1006200B100DBD7BF0033
:103700000040E800DBF7B700B17D21009140780070
:10371000DAD7BF0080CF500031003A0080E02000AF
:103720008040EB00014878000000E8008040EB009A
:10373000014878000000E8008040EB000148780074
:103740000000E8008040EB00014878000000E8003D
:103750008040EB00014878000000E8008040EB006A
:10376000014878000040EB00DAF7B7000040EB00BA
:10377000DBF7B70040442400E0BE880018003700A3
:1037800030332300E0BE880080E020008040EB0062
:10379000014878000000E8008040EB000148780014
:1037A0000000E8008040EB00014878000000E800DD
:1037B0008040EB00014878000000E8008040EB000A
:1037C000014878000000E8008040EB0001487800E4
:1037D0000040EB00DAF7B7000040EB00DBF7B70082
:1037E0000080FA00000006000200FA00000F7800D6
:1037F0001E007800104090008080FB001E00E80052
:103800000000E800104078000080FB004800DD0068
:1038100000804000204088001E00E8000080E80092
:10382000104078008080FB001E00E800630040002C
:10383000104078000080FB004800DD000080400060
:10384000104088001E00E80064004000104078002E
:103850008080FB001E00E8006500400010407800FA
:103860000080FB004800DD00008040003040880000
:103870003140800020408000020007000080FA00F4
:10388000000006001000FA00600798007107980019
:103890007E0090006600B90050079800E1BE8000ED
:1038A00020222200808F500004003200E1BE800000
:1038B00040442400808F5000DA003A00E1BE8000CE
:1038C00020222200808F500009003A0001C8BF006A
:1038D0008080FB007E0090000000E900808F500097
:1038E00003003A00DAD7BF000004E000070032000E
:1038F000E1BE800040442400808F500074003A00F4
:10390000DAD7BF000004E00071003A00DE0090004A
:1039100080802000FF000700800078006E0090008B
:10392000808F500060003A000040EB00004F98008C
:103930007E0090006600B900500798000E48900085
:103940000040E800004F9800114080000060200017
:103950000088B9008000780000A0200000804000AE
:103960003007980080802000200798005E009000BB
:10397000100798009E009000F0072000808F5000F4
:1039800009003C001E0090000000E0000600350029
:103990001E019000AE0090003E009000F50307006D
:1039A000104F98000500370002082000AE0090007C
:1039B0003E009000EF030700104F98003E0090007B
:1039C0000008B000300798002E0090000008B000FA
:1039D000200798009E00900000F82F000080400013
:1039E000100798001E0090000000E000E1FF3C007E
:1039F00011408000006020000088B900800078003D
:103A000000A02000008040005E0190008180200026
:103A1000230407000004E000030032000E48900079
:103A2000E44F5000C5FF3600207C21009000780054
:103A30008236210010C0B300460A0700202222006F
:103A4000E0BE88000040EB0001E8B70080E0200005
:103A50008040EB00014878000000E8008040EB0067
:103A6000014878000000E8008040EB000148780041
:103A70000000E8008040EB00014878000000E8000A
:103A80008040EB00014878000000E8008040EB0037
:103A9000014878000040EB00DAF7B7000040EB0087
:103AA000DBF7B7007C003700207C21009000780015
:103AB0008236210030C0B300260A070020222200EF
:103AC000E0BE88000040EB0001E8B700720037005C
:103AD0007E0090008040780001C8BF0000C0500008
:103AE0000040E900004F78001E04E0004000340070
:103AF0009E00FB00DAD7BF000080FB000080400082
:103B0000E60F50002E003400207C21009000780049
:103B10008236210030C0B3000E0A070020222200A6
:103B2000E0BE88000040EB0001E8B70080E0200024
:103B30008040EB00014878000000E8008040EB0086
:103B4000014878000000E8008040EB000148780060
:103B50000000E8008040EB00014878000000E80029
:103B60008040EB00014878000000E8008040EB0056
:103B7000014878000040EB00DAF7B7000040EB00A6
:103B8000DBF7B7004400370001C8BF000040E80081
:103B900001E8B700DAD7BF008080FB001280200068
:103BA0001241780080E02000008040000248780048
:103BB000DAD7BF000040E800DAF7B7001E4FE9008F
:103BC0001E04E000F0FF3C00207C21009000780003
:103BD0008236210020C0B300DE09070050552500C1
:103BE000E0BE88000040EB00DBF7B7002A0037009A
:103BF000DAD7BF000004E00027003200207C21005B
:103C0000900078008236210020C0B300D10907005F
:103C100050552500E0BE88000040EB00DBF7B70000
:103C20001D003700E1BE800050552500808F5000F8
:103C300006003A00207C21009000780082362100A6
:103C400020C0B300C309070013003700E1BE8000A5
:103C500030332300808F50000A003A00207C21007E
:103C6000900078008236210030C0B300B909070007
:103C700020222200E0BE88000040EB0001E8B700EF
:103C800005003700207C210090007800823621005A
:103C900010C0B300AF090700207C2100100078009D
:103CA00082C0B3008136210008FB0700E0BE80001F
:103CB0000080FA00000006000400FA0010079800D7
:103CC00080362100CF090700207C210010007800F9
:103CD00082C0B30081362100FCFA0700707727000C
:103CE00080BE880010408000A0BE8800C07C2100FB
:103CF000000F78009E007800A2002000000820003D
:103D00001C03070000040400000000000080FA000B
:103D1000000006000600FA0010079800210798002E
:103D20000080EB00000F780013003700F00F200038
:103D30001E0060004801DD001E007800C800DE00A3
:103D40001E009000104078000080FB00808068001A
:103D5000F00F20000080600080004000C00F2900AC
:103D60000080400010007800000F69001E009000E5
:103D70000000E800100798002E0090000000E90005
:103D8000200798002E009000E10F4000E7FF3A0066
:103D90001E0078000080FA00000006000000FA0013
:103DA000E0F32100209B88000080EB00109B88003E
:103DB0001300200002102000A10E2100A02E2100DF
:103DC0000B0B0700E10F50002A003A00A02E210043
:103DD0003D0B0700E10F500026003A00A03A2200F8
:103DE0003C0607008001EB00A23A22008000EB00B5
:103DF000A0002000EE05070040A7A800400B22000D
:103E0000340607008001EB00420B22001100200065
:103E1000401F2000E6050700CAD7BF00F14F500041
:103E200006003A00CDC2A9008001EB00A22E2200BC
:103E300011002000401F2000DD050700403822004F
:103E4000240607008001EB00423822001100200008
:103E500000A62E00D6050700E00B22001D06070075
:103E60008001EB00E20B2200110020004006200040
:103E7000CF0507000080FA00000006000400FA00E9
:103E8000000F78001E007800100798001E009000B8
:103E9000E20F5000090032001E009000E30F5000B6
:103EA000100032001E009000E10F500001003200AF
:103EB0000E0037000F0007000C003700813621008C
:103EC00080C0B30080487800207C2100100078007A
:103ED00082C0B300813621007CFA07002001070070
:103EE000020037000000EB00070207000080FA0024
:103EF000000006000000FA0020C4BF00704060000F
:103F00000004E0000A003200007422008136210023
:103F10000F000900B05878000001B1008036210080
:103F2000300007000000E000010032002084A900FA
:103F300020C4BF000042B2000004E0000A003200CA
:103F400000752200813621000F000900B05878006A
:103F50000001B10080362100220007000000E000CF
:103F60000100320020A4A90020C4BF000044B20018
:103F70000004E0000A0032000076220081362100B1
:103F80000F000900B05878000001B1008036210010
:103F9000140007000000E0000100320020C4A90066
:103FA00020C4BF0001C8B300014060000004E0006D
:103FB0000A00320000772200813621000F0009003C
:103FC000B05878000001B1008036210005000700DC
:103FD0000000E0000100320020E4A9000080FA00A7
:103FE000000006000800FA00200798002E0090004C
:103FF000104078000080FB000000A200610060001B
:104000000004E000550032002E009000900078007F
:10401000C0FF2100008060004200DE001007980011
:104020002E00900066004000000F78001E0078000F
:10403000104078000080FB00300798003E009000A0
:10404000E70F5000370032003E009000E70F5000AD
:104050000A003C003E009000E30F50001C003200BC
:104060003E009000E50F50002A0032003E00900014
:10407000E20F500012003200380037003E0090007E
:10408000F20F50002D0032003E009000F20F500061
:1040900004003C003E009000F00F5000240032006D
:1040A0002E0037003E009000F30F50002600320033
:1040B0003E009000F50F5000260032002700370028
:1040C0004C1507001E00E8008C0007002300370095
:1040D000CDC2A900CDE2A800401D22007D05070049
:1040E000207C2100100090008001EB00421D220086
:1040F0008000EB002E050700207C210010009000BE
:1041000042062000110009000280D800C0BE8800CD
:10411000120037009E0078001E009000AE000700DD
:104120000E0037001E0078003D0107000B0037002D
:104130001E00780028FC0700080037001E007800E9
:104140008FFC0700050037001E007800A6FD070061
:10415000020037001E007800D7FE07001000200084
:104160000080FA00000006000200FA00000F78004C
:104170000060FE000080FA00000006000200FA0065
:10418000000F7800A17C21009140780050CAB30054
:1041900080CF500017003A00B0BD8000C0BD88003D
:1041A000A0002000F0BD8800A17B21009140780094
:1041B000E0CFB30000C06000BAF7B700C1BE800016
:1041C00020032000808F50000A003600C0BE80000F
:1041D000309B88000000EB00C0BE8800BAD7BF004B
:1041E0000014A000BAF7B70031002000A02E210073
:1041F000960A0700C0BE80000000E0003A003A00C6
:1042000080362100070707000000E00034003A0074
:104210000000EB00C0BE8800A17C21009140780026
:1042200050CAB30080CF500009003A008136210007
:1042300010C0B300D7070700207C210010007800D1
:1042400082C0B30081362100A0F9070020003700AA
:10425000CAD7BF00F14F50001D003A00813621003F
:1042600010C0B300DD070700207C2100100078009B
:1042700082C0B3008136210094F907000000E000FD
:104280001300320020C2B300CAF7B700A02E2200EC
:1042900010050700CDC2A900CDE2A800207C2100B6
:1042A000100090008001EB00A22A220011002000E3
:1042B000BF0407008001EB00E22722008000EB0032
:1042C00000712200BA040700F0052000C0BE88007B
:1042D000C0BE800065004000C0BE880002003700FC
:1042E00010002000C0BE8800C0BE80000000E900B1
:1042F000C0BE88000080FA00000006000200FA003C
:10430000000F78001E00780010407800E14F500048
:104310000A003A00CDC2A800CDE2A900401D22004B
:10432000EC040700207C2100100090008001EB00CD
:10433000421D22008000EB009D0407001E00780053
:10434000604090000080FB00610060000004E0001D
:1043500001003200020007000080FA0000000600A1
:104360000000FA00CD42A800001E2200D904070078
:10437000207C2100200090008001EB00021E220022
:104380008000EB008A040700207C210020009000C0
:1043900042062000110009000280D800C0BE88003B
:1043A0000080FA00000006000200FA00000F78000A
:1043B000CDC2A900CDE2A9000080FA0000000600ED
:1043C0000200FA00000F7800CD42A9008214070015
:1043D0000080FA00000006000600FA0010079800AE
:1043E00021079800CAD7BF00F14F500041003200AA
:1043F000207C2100100F78002E0090000000E800C3
:104400000000E80090007800F07F200080806000CD
:10441000207C210001087800207C21001000780019
:104420000000E00005003200207C210090007800B0
:10443000F07F2000808F50000B003A001E00E0004B
:1044400003003200F07F20009E0F100004003A00AD
:10445000217C2100E07F20008008780002003700E6
:10446000207C21001E087800A17C2100914078006A
:1044700020C2B30080CF500006003A0050CAB300FB
:10448000CAF7B70050002000C0BE8800E027220015
:10449000900407000000EB0018000700207C2100BA
:1044A00010080700207C21001000780089F8070020
:1044B000207C210090007800E07F2000808F500059
:1044C00002003A0010C1B300CAF7B70083362100DA
:1044D0001E01780011C0B30010C0B30051070700DF
:1044E000207C21001000780082C0B30081362100BA
:1044F000F6F807000080FA00000006000200FA004B
:10450000000F7800A02A220072040700CDC2A90083
:10451000CDE2A900207C210090007800E07F2000FF
:10452000808F500009003A0010C1B300CAF7B700ED
:10453000CDC2A900207C2100100090008001EB007A
:10454000A22E220011002000190407000080FA00AA
:10455000000006000400FA00000F7800CDC2BF0082
:104560000080FB004600DE000004A2006140600005
:104570006140600061406000614060004601DD0014
:10458000D12C200091407800F0CBB30000C0600037
:1045900002407000CDE2B700CDC2BF008040EB000A
:1045A000214798000004E0000200350010C0B3006D
:1045B000204798002E409000C700DD00CDC2BF000C
:1045C0000074A10001407000CDE2B7000080FA0045
:1045D000000006000200FA00000F7800CDC2BF0004
:1045E0000080FB004600DE000004A2006140600085
:1045F0006140600061406000614060004601DD0094
:10460000D12C200091407800F0CBB30000C06000B6
:1046100002407000CDE2B7000080FA000000060002
:104620000400FA00000F78001E00780010407800A7
:10463000E74F500032003A001E00E80010407800BA
:104640000080FB00100798001E009000E10F500052
:10465000040032001E009000E20F500014003200EF
:10466000250037001E00E8000000E80090007800F8
:10467000207C210011009800207C210090009000F7
:1046800030062000808F500005003600207C21007D
:104690009000900080BB2000808F500016003600F4
:1046A000217C2100401F200090009800120037005C
:1046B0001E00E8000000E80090007800207C210047
:1046C00021009800207C2100A0009000F031200003
:1046D000808F500005003600207C2100A000900053
:1046E00000FA2000808F500003003600217C21005A
:1046F000007D2000A0009800207C210079070700A1
:104700000080FA00000006000200FA00000F7800A6
:10471000207C210090007800E07F2000808F5000F6
:104720000A003200CAD7BF00F14F50000700320024
:1047300080362100D8060700207C21001000780078
:1047400082C0B3008136210060F807000080FA00C3
:10475000000006000200FA00000F780080362100F9
:10476000CD060700207C21001000780082C0B30035
:104770008136210055F807000080FA00000006008D
:104780000600FA00700C20002007980000222C0080
:104790001007980040C7BF000080FB004500DE0006
:1047A00061406000004F780040A7A8009701070013
:1047B0009E40780061C06000614060004501DD00FE
:1047C0000174200091407800F0CDB30000C060007B
:1047D0000240700040E7B700AE0090001E0090005D
:1047E0000C010700650107000080FA0000000600C8
:1047F0000000FA007D0107000080FA0000000600BA
:104800000C00FA00881F78002007980031079800F4
:104810004207980040C7BF000080FB004500DE0053
:1048200061406000004F780040A7A8000201070027
:104830008620A90000CAB3000F0107000004E000B1
:104840000300320010002000500798004500370098
:104850002E0090004800DE00070107000004E00081
:104860000300320011002000510798003D0037007E
:104870002E009000000107000004E0000300320059
:10488000100020005007980036003700F2000700A3
:10489000E90007008620A90010CAB300F60007004F
:1048A0000004E000030032001100200051079800CE
:1048B0002C0037000000EB001007980018003700AC
:1048C0001E009000CE0090008100E900810F500092
:1048D000080031001E009000800078003E0090002B
:1048E000008440000040EB0001010700004C78000C
:1048F000070037001E009000800078003E00900006
:104900000084400010C0B300F9000700004C78009C
:104910001A0107001E0090000000E8001007980030
:104920009E0090004E009000808F5000E4FF390000
:104930009E40780061C06000614060004501DD007C
:104940000174200091407800F0CDB30000C06000F9
:104950000240700040E7B700BF0007000000EB0016
:10496000500798005E0090004F0478000080FA0025
:10497000000006000A00FA001007980021079800BE
:104980003207980040C7BF000080FB004500DE00F2
:1049900061406000004F780040A7A800A600070013
:1049A0008620A90000CAB300B30007000004E0009D
:1049B0000300320010002000400798003500370047
:1049C0001E0090004800DE00AB0007000004E0007D
:1049D0000300320011002000410798002D0037002D
:1049E0001E009000A40007000004E0000300320055
:1049F0001000200040079800260037000040EB0020
:104A0000104798000F0037001E4090000080FB0008
:104A1000800078002E009000008040001040780058
:104A2000950007000004E0000300320011002000A0
:104A300041079800170037001E4090000040E80032
:104A4000104798001E4090008080FB003E009000C0
:104A5000808F5000ECFF39009E40780061C06000FC
:104A6000614060004501DD00017420009140780044
:104A7000F0CDB30000C060000240700040E7B70016
:104A800075000700208020004B1407000000EB0099
:104A9000400798004E0090000080FA0000000600D9
:104AA0000C00FA0020079800310798004207980090
:104AB00040C7BF000080FB004500DE006140600091
:104AC0001047980040A7A8005B0007008620A900B7
:104AD00000CAB300680007000004E00003003200D1
:104AE0001000200050079800470037002E0090006B
:104AF0004800DE00600007000004E0000300320010
:104B000010002000500798003F0037002E00900052
:104B1000590007000004E0000300320010002000EC
:104B200050079800380037004B000700420007008C
:104B30008620A90010CAB3004F0007000004E0005F
:104B40000300320010002000500798002E003700AC
:104B50000000EB00100798001A0037001E009000BC
:104B6000CE0090008100E900810F50000400310068
:104B70000040EB005E000700004F780003003700A4
:104B800010C0B3005A000700004F78007B000700F8
:104B90001E009000800078003E00900000804000E1
:104BA000104078009E4F500003003200100020009B
:104BB00050079800140037001E0090000000E80025
:104BC000100798009E0090004E009000808F5000CB
:104BD000E2FF39001E4090006140600061406000CB
:104BE0004501DD000174200091407800F0CDB30054
:104BF00000C060000240700040E7B70016000700E8
:104C00000000EB00500798005E0090000080FA0062
:104C1000000006000400FA00000F78001107980059
:104C20001E009000201088001E00780030108800C0
:104C30000080FA00000006000000FA000602A8004A
:104C400006C2BF00614060000004E000FCFF3A00C3
:104C50000080FA00000006000000FA000642A800EA
:104C600006C2BF00644060000004E000FCFF3A00A0
:104C70000080FA00000006000400FA00004F7800EF
:104C80001E80FB00101088008120200091407800D9
:104C900000C8B30000C060000004E0000300320060
:104CA0000080EB00100798000E00370009C2BF001B
:104CB0000044B2000004E000FCFF3A0009C2BF005B
:104CC00001C8B300014060000004E00003003200AE
:104CD0001000200010079800020037000000EB00D1
:104CE000100798001E0090000080FA0000000600E7
:104CF0000400FA0020479800301080007F00600018
:104D00000000E000FCFF3A000662A80008C2BF00F5
:104D1000624060000004E000FCFF320000108000F0
:104D2000004F7800301080007F0060000000E0003D
:104D3000FCFF3A002E40900061406000614060003E
:104D40004501DD006120200091407800F0CDB300E6
:104D500000C060000240700006E2B7000682A800B2
:104D600006C2BF00704060000004E000FCFF3A0093
:104D70001E80FB000080FA00000006000000FA0020
:104D80000000370006C2BF00614060000004E00080
:104D9000FCFF3A0006C2BF00644060000004E0006F
:104DA000F8FF3A0006C2BF00684060000004E0005F
:104DB000F4FF3A0006C2BF00624060000004E00059
:104DC000F0FF3A0006C2BF00704060000004E0003F
:104DD000ECFF3A0009C2BF000044B2000004E0004A
:104DE000E8FF3A000080FA00000006000000FA0028
:104DF00007E2A9009600A9009620A9008600A90054
:104E00008620A9000080FA00000006000000FA00D9
:104E1000C922A800C902A80003003700CD02A900DA
:104E2000C902A900C902A800CBC2BF00624060004D
:104E30000004E000F9FF32000080FA0000000600E4
:104E40000200FA00000F78009E0078000000EB00DE
:104E5000800878009E0078000000EB009000980029
:104E60009E0078000080EB00A00098009E00780073
:104E70000000EB00C00098009E007800A200200017
:104E800000082000BBFE07000080FA0000000600BA
:104E90000000FA00C17C2100A200200000082000D0
:104EA00057FE070080BE8000E10F40001400320072
:104EB00081BE800010112100808F50001000320050
:104EC00081BE800020222200808F50000C00320022
:104ED00081BE800070772700808F5000080032006C
:104EE00081BE800080882800808F5000040032003E
:104EF00081BE8000A0AA2A00808F500003003A00E3
:104F000080BE8000E0BE880002003700C07C210027
:104F1000CBFF07000080FA00000006002000F80028
:104F20004200F8008E1F78008C9FBE008A9FBE0052
:104F3000889FBE00869FBE00849FBE00829FBE00E9
:104F4000809FBE003600F8003200F8004400F800F0
:104F50003400F8002FA897008F0078004100B100BE
:104F60000070A300320020001110AD008F00780007
:104F70008102B10002F02F00910861004800DE00BC
:104F8000910870008F007800C102B100F207200084
:104F900091086100207822001008E800E83502003E
:104FA00000000000207822001008E9001000E00056
:104FB0000D003A00E07822001000E0000A00320004
:104FC0000100200001087800FF3FFC00A0792200CA
:104FD000C179220010017800910178000F09780052
:104FE0009307780003087800FF3FFC00F0FF2F00D4
:104FF000000188003400F9004400F9003200F90093
:105000003600F9004F00BE004F01BE004F02BE0047
:105010004F03BE004F04BE004F05BE004F06BE004A
:105020004F0778004200F9002000F9000200FC0060
:10503000000006002000F8004200F8008E1F7800F3
:105040008C9FBE008A9FBE00889FBE00869FBE00C8
:10505000849FBE00829FBE00809FBE003600F80085
:105060003200F8004400F8003400F8002FA8970040
:105070008F0078004100B1000070A30032002000D2
:105080001110AD008F0078008102B10002F02F00F6
:10509000910861004800DE00910870008F007800E0
:1050A000C102B100F20720009108610020782200BF
:1050B0001008E8009C340200000000002078220064
:1050C0001008E9001000E0000D003A00E07822002E
:1050D0001000E0000A003200010020000108780002
:1050E000FF3FFC00A0792200C17922001001780066
:1050F000910178000F097800930778000308780081
:10510000FF3FFC00F0FF2F00000188003400F90091
:105110004400F9003200F9003600F9004F00BE00EB
:105120004F01BE004F02BE004F03BE004F04BE0041
:105130004F05BE004F06BE004F0778004200F90041
:105140002000F9000200FC00000006002000F8002A
:105150004200F8008E1F78008C9FBE008A9FBE0020
:10516000889FBE00869FBE00849FBE00829FBE00B7
:10517000809FBE003600F8003200F8004400F800BE
:105180003400F8002FA897008F0078004100B1008C
:105190000070A300320020001110AD008F007800D5
:1051A0008102B10002F02F00910861004800DE008A
:1051B000910870008F007800C102B100F207200052
:1051C00091086100207822001008E800064B0200D8
:1051D00000000000207822001008E9001000E00024
:1051E0000D003A00E07822001000E0000A003200D2
:1051F0000100200001087800FF3FFC00A079220098
:10520000C179220010017800910178000F0978001F
:105210009307780003087800FF3FFC00F0FF2F00A1
:10522000000188003400F9004400F9003200F90060
:105230003600F9004F00BE004F01BE004F02BE0015
:105240004F03BE004F04BE004F05BE004F06BE0018
:105250004F0778004200F9002000F9000200FC002E
:10526000000006002000F8004200F8008E1F7800C1
:105270008C9FBE008A9FBE00889FBE00869FBE0096
:10528000849FBE00829FBE00809FBE003600F80053
:105290003200F8004400F8003400F8002FA897000E
:1052A0008F0078004100B1000070A30032002000A0
:1052B0001110AD008F0078008102B10002F02F00C4
:1052C000910861004800DE00910870008F007800AE
:1052D000C102B100F207200091086100207822008D
:1052E0001008E800CA180200000000002078220020
:1052F0001008E9001000E0000D003A00E0782200FC
:105300001000E0000A0032000100200001087800CF
:10531000FF3FFC00A0792200C17922001001780033
:10532000910178000F09780093077800030878004E
:10533000FF3FFC00F0FF2F00000188003400F9005F
:105340004400F9003200F9003600F9004F00BE00B9
:105350004F01BE004F02BE004F03BE004F04BE000F
:105360004F05BE004F06BE004F0778004200F9000F
:105370002000F9000200FC00000006000200FA0014
:10538000A3002000A200200021072100C00421006A
:10539000EF0707000001EB0021002000C0052100FD
:1053A000D51007000040EB00004F780009003700DF
:1053B0001E80FB0000004000810C20008080400027
:1053C000E0002100808040000000EB0080087800B1
:1053D0001E4FE80090C0B3009E4F1000F4FF36004F
:1053E000160020008002EB0004102000E3E0200003
:1053F0002200200001A12200E0002100A1090700F5
:105400000000E00004003200C00421005A0E070032
:10541000C0052100220D07000080FA0000000600F0
:105420001000FA00600798008080EB00C0052100A2
:10543000970207000000E0005A003A000040EB002D
:1054400060479800520037006E4090000080FB00DB
:1054500000004000810C200080804000E00021001E
:1054600000804000100078000000E000450032009D
:10547000A0BD8000400798006E4090000080FB00B7
:1054800000004000810C200080804000E0002100EE
:105490000080400090007800210798002E009000C6
:1054A000900090004E009000808F500006003E005B
:1054B0002E009000900090004E00900001005000DF
:1054C00070079800060037002E00900090009000B2
:1054D0004E009000010050000000E90070079800A5
:1054E0007E009000500798002E00900090007800F9
:1054F0005E009000808F500022003E002E00900041
:10550000B0009000110798002E009000C00090009D
:10551000010F78002E009000200090000000E000B5
:105520000D003A006E4090000080FB00000040003B
:10553000810C200080804000E0002100808040003D
:105540000000EB0080087800AE009000C00421004D
:10555000D00D0700030037002E009000CE00900011
:1055600011009800C0052100A80E07009E009000C1
:105570001E007800010001008080EB00C0052100C2
:10558000430207006E4090000040E800604798002A
:105590006E409000E94F5000ABFF3600C00521007F
:1055A0009A0E070020032000630F07009EFF3700BC
:1055B0001000FA0040079800510798006207980011
:1055C000730798000000EB00200798000000EB0034
:1055D00030079800E60047000081EB00C00421007E
:1055E000BE0E07000000E00037003A003E009000C9
:1055F000100798001E009000CE009000010878006F
:10560000A1BD80001E009000110098001E009000B7
:10561000EE009000310098001E009000FE00900007
:10562000410098001E009000DE00900021009800CC
:105630008080EB00C0052100150207000000E0009B
:105640001E003A000040EB00004F780015003700C4
:105650001E80FB0000004000810C20008080400084
:10566000E000210000804000100078000000E00011
:105670000B003A001E80FB0000004000810C20005F
:1056800080804000E0002100008040009E009000EB
:10569000010878001000200020079800040037005F
:1056A0001E4FE80090C0B3009E4F1000E8FF360088
:1056B000C0052100550E070003003700BE00900012
:1056C000C0042100730D07002E0090000080FA0036
:1056D000000006000400FA00100798008080EB002C
:1056E000C0052100EA0107000000E0002E003A009A
:1056F0000040EB00004F7800260037001E80FB00C2
:1057000000004000810C200080804000E00021006B
:1057100000804000100078000000E0001C00320013
:105720001E80FB0000004000810C200080804000B3
:10573000E00021000080400010007800B0009000E0
:105740001E009000808F500011003A001E80FB0068
:1057500000004000810C200080804000E00021001B
:105760000080400090007800C0042100490D07002F
:105770001E80FB0000004000810C20008080400063
:10578000E0002100808040000000EB0080087800ED
:105790001E4FE80090C0B3009E4F1000D7FF3600A8
:1057A000C0052100190E07000080FA000000060065
:1057B0001400FA00100F98000000EB00400798005A
:1057C0000000EB00000F78001E089000640040000D
:1057D00034370200000000001E08900068004000FE
:1057E0003437020000000000D03C8100720040000D
:1057F0005A360200000000000000E00007003200FE
:10580000D03C810090109000D03C81001C400200F0
:1058100000000000000F78002B0037001E089000E9
:1058200060009000E20F5000040032001E0890005B
:1058300060009000E10F500023003A00D03C81004E
:105840009010900011079800D03C8100A0089000B3
:10585000710798007E009000624D02000000000079
:10586000600798009E0090006E009000F6490200CC
:1058700000000000100798007E009000900090004B
:10588000D03C810072004000808F50000400320044
:105890007E0090009000900071079800EDFF3700A7
:1058A000D03C8100A01090001E009000808F50001E
:1058B00005003200D03C81009E0090001C40020098
:1058C00000000000000F78001E0890005A36020009
:1058D000000000000000E000060032009E0890007A
:1058E0000000EB00F0009800D03C810040079800D9
:1058F0007C0037001E08900060009000E10F50000F
:1059000056003A00F0012000200798001E08900081
:1059100090009000710798007E009000844D020076
:1059200000000000500798005E009000A01090005A
:105930002E009000808F5000050031005E00900026
:10594000400798005E009000A0109000210798008A
:105950007E009000900090001E089000808F500004
:10596000040032007E0090009000900071079800C3
:10597000E9FF3700F00047004E00900006420200A9
:10598000000000000000E000210032004E00900006
:105990000080E80034370200000000004E00900054
:1059A000A44C0200000000008000EB004E009000BC
:1059B000A0380200000000000000E00002003200F9
:1059C00010002000000F78001E089000CE0090000C
:1059D00071009800CE0090000000EB00C008980015
:1059E0001E089000E40040004E009000720040004D
:1059F000A2360200000000001E089000E8004000EF
:105A0000807A2200A2360200000000003500370034
:105A10004E009000EA004000C07A22005037020099
:105A2000000000000000E0002E003A004E00900050
:105A3000EA004000C07A2200A23602000000000006
:105A4000CE00900000042000D01098008E08900036
:105A50004E00900041089800220037001E08900078
:105A600060009000E20F50001E003A001E089000F7
:105A7000C836020000000000700798007E00900009
:105A8000844D020000000000500798008000EB00E9
:105A90005E009000A0380200000000000000E0005E
:105AA0000200320010002000000F78001E08900055
:105AB000DE009000710098001E089000E400400095
:105AC0005E00900072004000A2360200000000005C
:105AD0001E089000E8004000807A2200A2360200F2
:105AE000000000001E089000700090000000E00020
:105AF0001E003A001E08900060009000E10F500068
:105B00001A003A00703D8100700798007E009000F6
:105B1000F84C02000000000030079800BE00900022
:105B20004E009000808F5000070032003E00900031
:105B300098470200000000000000E0000200320070
:105B400010002000000F78007E0090009000900070
:105B5000C07A2200808F5000040032007E00900046
:105B60009000900071079800E8FF37001E00780051
:105B70000080FA00000006000000FA00C8E2A90058
:105B8000CCE2A900600020000B100700CCE2A800C6
:105B900000042000081007000080FA000000060042
:105BA0000000FA00C8E2A900CCE2A900C00320006E
:105BB00001100700CCE2A800A0002000FE0F0700A3
:105BC0000080FA00000006000400FA002047980058
:105BD0000000EB00000F78000D0037002E40900011
:105BE0000080FB00610060000004E0000200320061
:105BF000E1FF070001003700E9FF07002E40900099
:105C00000080FB000000D100204798001E0FE80034
:105C1000700020009E0F1000F0FF36000080FA0098
:105C2000000006000600FA00200798000040EB0084
:105C30002047980070002000000F78000040EB0023
:105C4000304798002C003700C8E2A900CCE2A90038
:105C500060002000D80F0700CCE2A80090002000D0
:105C6000D50F0700C8E2A80020002000D20F0700CF
:105C70002E4090000080FB000000D10020479800DB
:105C8000A12C20009140780000C8B30000C0600043
:105C90000004E000040032002E40900001C8B30070
:105CA00001407000204798003E4090000080FB00BB
:105CB0000000E800670060000000E00009003A0012
:105CC0001E007800800078002E00900000804000C8
:105CD000AE409000014878000040EB00204798005B
:105CE0001E0FE90070032000B30F07003E40900034
:105CF0000040E80030479800BE409000F0C3B30079
:105D000080CF5000D0FF36000080FA00000006006F
:105D10000800FA00200798000040EB002047980098
:105D200080002000000F78000D0037009E007800F2
:105D30002E009000008040000000E90090407800B4
:105D40002E40900000C068008080FB00406B210066
:105D50000080400090407800214798001E0FE90025
:105D60001E00E000F1FF3C002E4090000004E00027
:105D700008003A002E0090006700400010407800B4
:105D80000004E000030032000000EB003007980040
:105D90000200370011002000310798003E009000FB
:105DA0000080FA00000006000400FA001000200045
:105DB00010079800C8E2A900CCE2A900001E20004C
:105DC0007D0F0700CCE2A800C8E2A8006004200014
:105DD000790F0700000F2000000F7800080037003F
:105DE000CAC2BF0001C8B300014060000004E00067
:105DF00003003A000000EB00100798000400370091
:105E00001E0FE9000080EB009E0F1000F4FF3A0027
:105E100000192000680F07001E0090000080FA00A3
:105E2000000006000400FA00000F7800DEFF070003
:105E30000000E00011003A00CDC2A800CDE2A800A9
:105E4000401D220023FE07008001EB00421D2200BE
:105E50008000EB00401F2000D5FD070030C3B300D9
:105E600059FF07001E0078006EFF07001E00780033
:105E7000A7FF07001007980002003700100020005D
:105E8000100798001E0090000080FA000000060035
:105E90000C00FA003007980041079800103C810080
:105EA0000000E00003003A00303C81000000E00008
:105EB00003003200E0FF2F0050079800B2003700C7
:105EC000204E020000000000100798000000EB00C8
:105ED000000F78003E009000F0009000D03C810060
:105EE000808F500003003A0080FF2F00000F7800E1
:105EF000A00037003E00900060009000E10F5000CD
:105F000009003A00D03C8100901090003E009000C3
:105F100000089000808F50000300310080FF2F00A8
:105F2000000F7800930037003E0090006000900062
:105F3000E10F50005B003A003E00900070009000BE
:105F40000000E0003C003A00D03C8100E400470043
:105F500006420200000000000000E00012003200D3
:105F6000D13C81003E00900071009800D13C81003E
:105F70000000EB00C00898003E009000E4004000E4
:105F8000D03C810072004000A236020000000000F8
:105F90003E009000E8004000807A2200A236020015
:105FA00000000000730037002E0090000000E000A9
:105FB0000B003200D03C8100A01090002E00900019
:105FC00020109000808F500005003100D03C8100EF
:105FD000A01090002E0090001C4002000000000065
:105FE000D03C8100EA004000C07A2200A2360200C4
:105FF00000000000D13C81002E009000C0089800F5
:106000003E0090004E01900001042000504A020022
:10601000000000001E0090003C4E02000000000046
:106020003E49020000000000D03C8100601090005A
:106030005007980054003700D03C8100A010900019
:106040003E0090007000900020109000808F500063
:1060500006003100D03C8100A01090003E0090006E
:10606000700090001C400200000000003E00900004
:106070004E01900001022000504A02000000000082
:106080001E0090003C4E0200000000003E4902004D
:1060900000000000D03C8100601090005007980084
:1060A000390037003E00900060009000E20F500081
:1060B00030003A003E009000700090000000E000C8
:1060C00011003A00D13C81003E0090007100980020
:1060D0003E009000E4004000D03C8100720040008F
:1060E000A2360200000000003E009000E8004000E0
:1060F000807A2200A2360200000000000000EB00BF
:10610000000F78001B003700D03C8100A0109000E9
:106110003E0090007000900020109000808F500092
:1061200006003100D03C8100A01090003E0090009D
:10613000700090001C400200000000003E00900033
:106140004E01900001082000504A020000000000AB
:106150001E0090003C4E0200000000003E4902007C
:1061600000000000D03C81006010900050079800B3
:10617000050037001E0090003C4E020000000000A9
:106180001E007800500798005E0090000080FA0022
:10619000000006000600FA0020479800210798003A
:1061A0002E009000000F78009E0078001E007800FE
:1061B0000080E80062002000FBEF07009E007800EE
:1061C00010C0B300804878001E00E800AE40900088
:1061D000014878000080FA00000006000600FA007E
:1061E00020479800210798002E009000000F7800AB
:1061F0009E0078001E0078000080E8006200200009
:10620000E9EF07009E00780040C0B30080487800A6
:106210001E00E800AE409000014878000080FA00BF
:10622000000006000800FA00204798003147980057
:1062300022079800330798003E009000000F780076
:106240009E00780060C0B300804878001E00E8001F
:10625000AE409000014878001E00E800BE4090006B
:10626000114098001E00E8000080E80080007800DF
:106270002E009000804878001E00E8000080E800B2
:106280008000E8002E0090004800DE008048780082
:106290000080FA00000006000400FA0010079800D1
:1062A0001E009000000F78009E007800A0C0B30090
:1062B000804878001E00E80080007800BAD7BF0050
:1062C000A04098001E00E800800078000040EB002D
:1062D000B04098000040EB00BAF7B7001E00E8009D
:1062E0008000780040C6B300804878001E00E800B7
:1062F0008000E8000040EB00804878001E00E800C5
:106300008080E800309B8000804878001E00E80014
:10631000E3004000309B80004800DE0080487800A9
:106320000000EB00309B88000080FA0000000600AF
:106330000400FA00100798001E009000000F78007B
:106340009E00780010C1B300804878000080FA00F9
:10635000000006000800FA00204798002107980076
:10636000320798003E009000000F78001E00780071
:106370008040EB00014878000000E8008040EB001E
:10638000014878000000E8008040EB0001487800F8
:106390000000E8008040EB00014878000000E800C1
:1063A0008040EB00014878000000E8008040EB00EE
:1063B000014878000000E8008040EB0001487800C8
:1063C0000000E8008040EB0001487800DAD7BF0009
:1063D0000081FB001E0078000080E80081E02000C2
:1063E00071EF07009E00780040C1B300804878003C
:1063F0001E00E800AE409000014878000080FA00DE
:10640000000006000400FA00100798001E0090002B
:10641000000F78001E0078008040EB0001487800F3
:106420000000E8008040EB00014878000000E80030
:106430008040EB00014878000000E8008040EB005D
:10644000014878000000E8008040EB000148780037
:106450000000E8008040EB00014878009E007800D2
:1064600060C1B300804878000080FA000000060098
:106470000800FA002007980031079800A0CAB3006E
:10648000204798000000EB00000F78000D00370057
:106490001E007800800078002E00900000804000F0
:1064A000904078002E40900000C068008080FB0083
:1064B000406B210000804000904078002147980008
:1064C0001E0FE8009E0078003E009000808F500074
:1064D000EFFF39002E4090000080FB000080FA00A2
:1064E000000006000400FA00100798001E0090004B
:1064F00061002000DEFF07008080FB001E0090008E
:10650000310098009E009000820020000000EB0007
:1065100018F90700004F78001E80FB000080FA0089
:10652000000006000600FA00100798009E00900088
:10653000820020000000EB00B1F80700E14F50009E
:106540000B003A009E009000820020000000EB004B
:10655000ABF80700004F780010C0B3009E4F10004A
:1065600003003A001E80FB00200798000B00370054
:106570001E00900081002000BDFF0700004F780042
:106580001E04E000030032001000200020079800E5
:10659000020037000000EB00200798002E0090005A
:1065A0000080FA00000006000200FA00207C2100B2
:1065B000DCFF0700004F78001E04E00005003200F9
:1065C000207C21004900070010C1B300CAF7B700C2
:1065D00015003700207C210090007800E07F20002B
:1065E000808F500003003A0010C1B300CAF7B70013
:1065F0000D003700207C210090007800F07F200003
:10660000808F500006003A00207C2100E17F2000AE
:106610000108780010C1B300CAF7B70002003700C4
:1066200050CAB300CAF7B700207C21009000900048
:1066300030062000808F500005003600207C2100AD
:106640009000900080BB2000808F50000300360037
:10665000217C2100401F200090009800207C210018
:10666000A0009000F0312000808F5000050036001F
:10667000207C2100A000900000FA2000808F5000B4
:1066800003003600217C2100007D2000A00098003E
:10669000FFF9070091BE8000D0BC2A00808F500017
:1066A00010003A0081BE800080882800808F500052
:1066B0000C003A00A0AA2A0080BE880040232100D6
:1066C00090BE88000000EB00A0BE8800C17C2100C5
:1066D000A200200000082000A6F80700CDE2A900D3
:1066E000CDC2A9000080FA00000006000200FA00F6
:1066F000000F78009E007800E07F2000800878007E
:106700009E007800401F2000900098009E007800B6
:10671000007D2000A00098001E00780071FF070097
:106720000080FA00000006000000FA00600220006D
:10673000303A880044C7BF00F043B20044E7B700D6
:10674000417420009140780000CEB30000C060008A
:1067500044E7B70050012000403A880040A7A90054
:106760001200200081072000A009200033742000BF
:106770008149780080497800824978001200200021
:1067800061042000700520002374200081497800F6
:10679000804978008249780043C7BF000047B200B3
:1067A000F04F5000FCFF3A0042C7BF000042B20069
:1067B0000004E000FCFF32000080FA000000060048
:1067C0000000FA0005E1A9000421A90004C1A90004
:1067D00005A1A9004110200091407800F0CCB30041
:1067E00000C0600001C2B3000140700004E1B700C6
:1067F0000000EB0000088800102720001008880027
:10680000510A200091407800F0C8B30000C0600039
:106810000044A000A5E0B7008460A9009460A8002F
:1068200005E1A8000080FA00000006000000FA0060
:1068300011E1A9001021A90010C1A90011A1A9000E
:106840000111200091407800F0CCB30000C060003E
:1068500001C2B3000140700010E1B7000000EB007E
:10686000300888001027200060088800710A200086
:1068700091407800F0C8B30000C060000044A00060
:10688000A7E0B70084E0A90094E0A80011E1A80007
:106890000080FA0000000600801F78003400F80035
:1068A00000002000A00188000000FA00A0BD8000C8
:1068B0000000E800A0BD88008460A9000080FA0004
:1068C0003400F9004F007800004006000000FA0094
:1068D00013E1A9001221A90012C1A90013A1A90066
:1068E0002111200091407800F0CCB30000C060007E
:1068F00001C2B3000140700012E1B7000000EB00DC
:106900005008880040422F0070088800810A20004B
:106910009140780080CFB30000C060000014A00058
:10692000A8E0B7008500A9009500A80013E1A80021
:106930000080FA00000006000200FA00B0BD8000EE
:106940000000E800B0BD88008500A900B1BD80004E
:10695000C0BD8000808F500005003900B1BD8000AF
:10696000C0BD800080805000010F78000500370016
:10697000B0BD8000C1BD8000010050000000E900F2
:10698000000F78001E007800E0BD8800E1BD8000A7
:10699000F0BD8000808F50000E003600BAD7BF00D7
:1069A0000004E0000B003A00CDE2A80080252000A2
:1069B000F0BD8800B0BD8000C0BD8800BAD7BF0060
:1069C0000004A000BAF7B70031002000A02E21007B
:1069D0009E0007000080FA00000006000000FA0098
:1069E00066FA0700EDF407000080FA0000000600D8
:1069F0000A00FA0010079800210798003207980053
:106A0000430798001E009000F20040001E00900016
:106A100092002000140B0700800078000000EB00BB
:106A2000000F78000100E00002003A001000200092
:106A3000000F7800100020009E0F100014003A0094
:106A40004E0190001E009000A003B0000003EB0078
:106A50009E0290003E029000AE019000C1592300BA
:106A600008040700800078000000EB00000F7800A9
:106A70000100E00002003A0010002000000F780042
:106A80001E00E00002003A001E009000BE04070055
:106A90001E0078000080FA00000006000000FA00E6
:106AA000265E2300455C2300E44E230003082000FB
:106AB000824721000108200080372100550407008B
:106AC0000080FA00000006000400FA00000F7800C1
:106AD000A10320001E804000340807008000EB0066
:106AE00011079800E50F400002003200100020005E
:106AF000100798001E0090000080FA0000000600B9
:106B00000400FA00000F7800A10320001E8040005E
:106B1000E80707008000EB0011079800E50F400030
:106B20000200320010002000100798001E009000A4
:106B30000080FA00000006000600FA002007980016
:106B40002E009000000F78000000EB001007980066
:106B5000000037001E0078004038900000017800E7
:106B60001E0078008E80E800EA0207000000E000C6
:106B7000F8FF3A001E007800D03890001E00900008
:106B800001000100F3FF37000000FA0084E0A900D3
:106B900094E0A800710A200091407800F0C8B3008A
:106BA00000C0600001C4B30001407000A7E0B7005E
:106BB000890A070090EE0700FDEE07000080FA004A
:106BC000000006000000FA000080FA000000060045
:106BD0000000FA0084E0A900430307000080FA00E7
:106BE000000006000800FA00000F78001107980066
:106BF000220798009E0090001E0078002E01900051
:106C0000B90407008000EB00310798000000E000A5
:106C100002003A0010002000300798003E0090006B
:106C20000080FA00000006000400FA00000F78005F
:106C3000110798000081EB009E0090001E00780074
:106C4000E8FF07000080FA00000006000600FA00D6
:106C5000000F7800110798009E0090001E00780039
:106C6000380607008000EB00210798000000E000D4
:106C700002003A0010002000200798002E0090002B
:106C80000080FA00000006000200FA00000F780001
:106C90001E0078009E007800110098001E00780009
:106CA000900090001E007800010878000080FA0033
:106CB000000006000400FA00000F78001E007800B3
:106CC000100090009E0F500007003A001E00780050
:106CD000100078009E0F500003003A0010002000C2
:106CE00010079800020037000000EB001007980022
:106CF0001E0090000080FA00000006000400FA0068
:106D0000000F7800110798001E0078009000900096
:106D10001E009000110098001E0090001E087800D0
:106D20001E009000100090009E0090000108780066
:106D30001E0078009E009000110098000080FA006C
:106D4000000006000400FA00000F78001107980008
:106D50001E0090009E007800110098001E00780030
:106D6000900078001E009000010878001E0090003E
:106D7000100078009E009000110098001E0078001E
:106D80009E009000010878000080FA0000000600D4
:106D90000600FA00100798001E0090000000E000B6
:106DA000050032001E009000900090001E00900030
:106DB000808F500003003A000000EB00200798008D
:106DC0000D0037001E00900090009000010F780029
:106DD0001E007800100090009E00900001087800CE
:106DE0001E007800900090001E0090001100980096
:106DF0001E007800200798002E0090000080FA0006
:106E0000000006000600FA00100798001E0090001F
:106E1000900078001E009000808F500003003A0020
:106E20000000EB00200798000C0037001E009000C7
:106E3000100F78001E007800100078009E0090006F
:106E4000110098001E007800900078001E0090004D
:106E5000010878001E007800200798002E0090009E
:106E60000080FA00000006000200FA00000F78001F
:106E70001E007800900078001E007800100090003E
:106E8000900098001E007800900090001E0078008E
:106E900010007800800878000080FA0000000600EA
:106EA0000800FA0020079800310798000000EB0066
:106EB000100798002E00900090009000010F7800BD
:106EC0003E0090009E0F100003003A0010002000CA
:106ED00010079800090037001E007800900090000D
:106EE0002E009000808F5000040032001E007800B9
:106EF00090009000010F7800F1FF37001E00900015
:106F00000080FA0000000600D61700000200000012
:106F100000000000B41700000C0000000200000098
:106F2000000000000000000000000000000A000057
:106F3000781300000002000000000000002700009D
:106F40008000000000000000B416000000010000F6
:106F500002000000005EBC00E2613F00DD83C20071
:106F60009C7E2000A3FD1F00419DC300217FFC00EB
:106F7000A2401E005F01E300BD3E600082DC2300F2
:106F80007D9FC100421CFE00A0E1BF005D038000A8
:106F9000DE3C6200BEE002005CDF8100633D7C00FD
:106FA00022C09E001D43A100FF461800FAA427003E
:106FB000799BC50084DA380066E5BB005907DB0021
:106FC00085673900BAE4060058194700A5FB780028
:106FD00026C49A00653BD90087045A00B8E6A7008A
:106FE000F91B4500C6987A0024F8A600441A9900B7
:106FF000C7257B003A648600D85B0500E7B98C00A2
:10700000D2306E00EDB351000F4E1000F2AC2F00E5
:107010007193CD00114FAD00F3702E00CC92D300D0
:107020008D6F3100B2EC0E0050AFF100134DCE0069
:1070300090722C006D33D1008F0C5200B0EE3200F4
:107040006C8ED000530DEF00B1F0AE004C129100E9
:10705000CF2D7300CA94760028ABF50017490800BD
:1070600056B4EA006937D5008B570900EBB53600F6
:10707000688AD40095CB290077F4AA004816E90065
:10708000B7550B0088D634006A2B750097C94A00A3
:1070900014F6A800742AC80096154B00A9F7B6008C
:1070A000E80A5400D7896B00350000000E0E00007E
:1070B000DC02000000000000D81700000200000001
:1070C0000200000001000000EA1000008E02000033
:1070D00000000000000800000E0600000000000094
:1070E000DA170000020000000200000000000000AB
:1070F000DC1700000200000002000000FFFF00009B
:10710000CC1700000A00000000000000C0170000BB
:107110000C00000000000000802700002800000094
:1071200000000000781500003C0100000000000095
:10713000A827000008000000000000000000000078
:107140001200FA0060079800710798006E00900026
:107150000000E00003003A000000EB00000F980080
:10716000780037000000EB00100798000000EB00EB
:10717000000F78006E009000D010900000082000F2
:10718000808F50000A0032006E009000D0109000F6
:1071900000022000808F5000050032006E00900039
:1071A000D010900000042000808F500006003A00AC
:1071B00010002000400798006E009000B00890007A
:1071C000010F7800020037000000EB004007980034
:1071D0007E009000E10F500004003A006E00900025
:1071E0000080E8003437020000000000EE0090004C
:1071F0000000EB00D0109800EE0090000000EB00C3
:10720000B0089800EE0090000000EB00E01098003D
:107210006E00900070109000E10F400004003200FA
:107220006E0090006600400034370200000000004D
:10723000EE0090000080EB00F01098006E009000CF
:10724000401090004300DE000000A20061006000DA
:107250000004E000060032006E009000D6480200F4
:107260000000000010002000100798000300370005
:10727000EE00900080002000C01098004E009000AA
:10728000E10F50002D003A001E007800A44D0200CE
:1072900000000000300798006E009000D0109000B1
:1072A00000042000808F500004003A006E0090001F
:1072B000C008900021079800030037003E009000AE
:1072C000F0009000210798002E0090000000E000E0
:1072D0001A0032002E009000A01090002E009000A6
:1072E00010109000808F5000140032002E0090008B
:1072F000A01090006E00900020109000808F500031
:107300000E003A002E009000901090003E00900079
:10731000F64902000000000050079800DE009000CF
:107320002E0090001C400200000000000000E00061
:107330000200320010002000100798001E0090008C
:10734000000F98000E0890000080FA000000060070
:107350001200FA0040079800510798006207980051
:10736000730798004E0090004436020000000000B1
:107370005E0090000000E8000000D1000000400026
:10738000100798009E0090004E0090004100980069
:107390006E0090000000E8000000D10000004000F6
:1073A000800078004E00900021009800EE009000D0
:1073B0007E0090000088B900800078005E00900098
:1073C00000804000100798004E00900040009000A0
:1073D000000178004E009000A00090007E00900018
:1073E0000088B900000F41004E009000FE009000A0
:1073F00031009800080037004E00900020009000F7
:107400001E0F10004E009000300090008000E90038
:107410004E009000310098001E0090009E0F10005A
:10742000F5FF3E004E00900030009000E10F50004C
:107430000C003E00CE0090000000EB00E000980041
:10744000CE0090000000EB00B0009800CE0090004D
:107450000000EB00D0009800B0FF2F00000F980054
:10746000310037004E009000400090003007980037
:107470004E00900040009000800078004E00900088
:107480002000900000804000200798000000EB00E2
:10749000100798000E0037003E009000AE009000EC
:1074A000010878002E009000300798004E009000F0
:1074B00020009000800078002E0090000100400025
:1074C000200798001E0090000000E80010079800B8
:1074D0004E009000300090008000E9001E009000F7
:1074E000808F5000ECFF3E00BE0090000000EB00DB
:1074F000800878004E009000C00090004E00900080
:10750000510098004E009000B00090004E00900096
:1075100061009800CE009000B0E82C00F0009800C8
:107520008000EB00010F98000E0890000080FA0028
:10753000000006000E00FA0030079800410798008E
:107540000000EB00200798003E009000A010900083
:10755000110798001E0090004200DD0080007800B6
:10756000805B2100008F40003E0090000080E8001A
:1075700034370200000000001E0078005A36020076
:10758000000000000000E000270032001E01900013
:107590001000200001002000820178008301E90032
:1075A000030033000000400081804800FBFF3700EB
:1075B0000080EA008180EA00B23C8100C33C810087
:1075C00000027800810278000200780083007800D1
:1075D00000016200018062006102B8005407980057
:1075E000650798005E009000EE009000C000DD008E
:1075F0000000200050079800610798005E0090008E
:10760000EE0090006112B8005407980065079800DA
:107610005E019000EE019000020070008380700017
:10762000B03C8900C13C89003E009000CE01900032
:10763000231098003E0090000081E8004E0090006A
:107640004200DD0080007800805B21000080400067
:1076500082007800A2360200000000004E01900077
:1076600010002000010020000002BE00020378008C
:107670000603E900030033000402420085824A0049
:10768000FBFF37000401BE00B03C8100C13C81001B
:107690000000710081807100B03C8900C13C89000C
:1076A000E13C81003E009000808F50000D003A00C8
:1076B000CE0090001E009000808F50001200390014
:1076C0001C4D020000000000E13C81003E009000E3
:1076D000808F50000C003200803C81002007980011
:1076E00009003700E03C8100A01090004E0090009F
:1076F000808F500004003600BE009000E13C8900FD
:10770000823C8100220798002E0090000080FA0041
:10771000000006001000FA0040079800510798008A
:1077200062079800103C81000000E00003003A006E
:10773000303C81000000E00003003200E0FF2F0039
:107740007007980065003700204E0200000000001E
:1077500030079800DE0090004E0090002A4702009B
:1077600000000000200798002E0090000000E000BC
:1077700020003A004E0090005A360200000000003F
:107780000000E00050003A004E009000C8360200B1
:1077900000000000100798001E009000844D0200B9
:1077A00000000000000F78001E007800B018900064
:1077B0004E009000C2430200000000008000EB0079
:1077C0001E007800A0380200000000000000E00069
:1077D0003D0032003E0090003C4E020000000000E0
